:100000000C9438000C9400000C9400000C94000038
:100010000C9400000C9400000C9400000C94000060
:100020000C9400000C9400000C9400000C94000050
:100030000C9400000C9400000C9400000C94000040
:100040000C9400000C9400000C9400000C94000030
:100050000C9400001027E80364000A00010000105F
:1000600000011000010080C0020060016600000075
:10007000F894EE27ECBBF1E0FBBFEBBFE5BFF8E186
:10008000F1BDE1BD8DE0A2E0BB27ED938A95E9F7D4
:1000900080E094E0A0E6ED930197E9F7E8E6F0E070
:1000A00085919591009761F0A591B5910590159076
:1000B000BF01F00105900D920197E1F7FB01F0CF30
:1000C000EFE5EDBFE4E0EEBFC0E6D1E00C946800E0
:1000D000E0E0EBBBEABBE8BBEFE0E7BBE0E0E5BBA1
:1000E000E4BBE2BBE0EEE1BBE9E6E3BFE0E0E2BF98
:1000F000ECBFE2E8EFBDEAE1EEBDE0E0EDBDECBD56
:10010000E9E0E7BDE3ECE6BDE4E6F0E0FBBDEABD17
:10011000E0E0E9BDE8BDE2BDE9E6E5BDE0E0E4BD63
:10012000E3BDE5BFE4BFE9BFEBB9E8E1EAB9E6E862
:10013000E0BDE0E0E0BDECE0E9B9E0E8E8B9E0E02E
:10014000E0BFE0E1EA930E9494010E94C9015E2EA3
:100150005A920E94CD01E3E6E51529F4ECEAF0E0BD
:10016000FBBDEABD79C0EFE6E51529F4E0E5F0E076
:10017000FBBDEABD71C0E4E6E51521F4E0E00E94B4
:10018000D30169C0E9E6E51541F4E4EBECBFE8E72B
:10019000E3BDC09AC198C2985EC0E5E6E51531F4AA
:1001A000EAEAECBFE0E00E94DA0156C0EEE6E515AF
:1001B00031F4E8E7ECBFE4EB0E94DA014DC0E6E67B
:1001C000E51529F4EAEAECBF0E94E00144C0E6E448
:1001D000E51529F4E8ECECBF0E94E0013CC0E7E63D
:1001E000E51529F4ECEDECBF0E94E00134C0E2E635
:1001F000E51541F4ECEDECBFE3BDC09AC198C29A9D
:1002000096982AC0E2E7E51531F4E4EBECBFECE8A0
:100210000E94DA0121C0ECE6E51541F4E2E8ECBF0A
:10022000E4EBE3BDC09AC198C29815C0E2E5E515BC
:1002300029F4EAEAECBF0E94DA010EC0ECE4E5150D
:1002400021F4EAEA0E94D30106C0E3E7E51521F4B0
:10025000C09AC19AC29A969A78CFFFCFFFE0FA95DA
:10026000F1F70895A4B3AF70A4BBA99AA898F6DFDC
:10027000AA9AF4DFA3B3AA98F1DFAA9AEFDFAA98AB
:10028000A7FDF5CF0895A07FAB2BA5BBAA9A0E942E
:100290002E01AA980E942E010895A998A4B3A76FD1
:1002A000A4BBB5B3BF70A881EEDFA881A295EBDF38
:1002B000A99A0C94D101AA9A0E942E01E3B3AA989C
:1002C0000E942E01E07F08950E942E01F4DFAE2FE0
:1002D000F2DFA998E295EA2B08950E943201E2E04C
:1002E000EA930E944D010E943201ECE0EA930E94E1
:1002F0004D010E943201E1E0EA930E944D01E0E0ED
:100300007E2E4E2E0895AA27BB271197F1F7089548
:10031000A998A4B3A76FA4BBB5B3BF70A8810E946E
:100320004301A99A0C94D101AA98A8986880E88101
:10033000E058E0936201E881E054E09363010E9499
:10034000E5010E94E5010E94E501DDDFE0E2EA93BC
:10035000DFDFD9DFE8E20E94EB01E4E00E94EB017D
:10036000E5E80E94EB01A4B3AF70A4BBA99A0E9478
:100370006401E53019F0E0E00C94D1010E943201F3
:10038000E6E0EA930E944D010E946D01E1E00C94C9
:10039000D1015F9BFECFECB108955D9BFECFE8815C
:1003A000ECB921960895ECBFEAEAE3BDC09AC19882
:1003B000C2980895E3BDC098C19AC29A96980895CC
:1003C000E3BDC098C19AC29808950E948301E0E3FA
:1003D000EA930C948801EA930E944D010C948301E6
:00000001FF
